:10000000E5C0FFC0FEC0FDC0FCC0FBC0FAC0F9C027
:10001000F8C0F7C0F6C0F5C0F4C0F3C0F2C0F1C03C
:10002000F0C0EFC0EEC094C14DC195C14EC150C1EA
:1000300052C154C156C158C15AC189C188C187C172
:1000400086C185C184C183C182C181C180C152C1C1
:100050007EC17DC17CC17BC17AC179C178C177C1C4
:1000600076C14BC174C173C172C171C170C16FC11E
:100070006EC16DC16CC144C16AC169C168C167C14B
:1000800066C165C164C163C162C13DC160C15FC178
:100090005EC15DC15CC15BC15AC159C158C136C1A5
:1000A00056C155C154C153C152C151C150C14FC1B4
:1000B0004EC12FC14CC14BC14AC149C148C147C102
:1000C00046C145C144C128C142C141C140C13FC12F
:1000D0003EC13DC13CC13BC13AC13AC138C137C143
:1000E00036C135C134C133C132C131C130C117C18C
:1000F0002EC12DC12CC12BC12AC129C128C127C1A4
:1001000026C110C124C123C122C121C120C11FC1E8
:100110001EC11DC11CC109C11AC119C118C117C115
:1001200016C115C114C113C112C102C110C10FC142
:100130000EC10DC10CC10BC10AC109C108C1FBC070
:1001400006C105C104C103C102C101C100C1FFC094
:10015000FEC0F4C0FCC0FBC0FAC0F9C0F8C0F7C0D4
:10016000F6C0F5C0F4C0F3C0F2C0F1C0F0C0EFC0FB
:10017000EEC0EDC0ECC0EBC0EAC0E9C0E8C0E7C02B
:10018000E6C0E5C0E4C0E3C0E2C0E1C0E0C0DFC05B
:10019000DEC0DDC0DCC0DBC0DAC0D9C0D8C0D7C08B
:1001A000D6C0D5C0D4C0D3C0D2C0D1C0D0C0CFC0BB
:1001B000CEC0CDC0CCC0C5C0CAC0C9C0C8C0C7C0F1
:1001C000C6C0C5C0C4C0C3C0C2C0BEC011241FBE0B
:1001D000CFE5D4E0DEBFCDBF10E0A0E6B0E0E4E2C2
:1001E000FEE002C005900D92A436B107D9F720E0D9
:1001F000A4E6B0E001C01D92AE39B207E1F782D4A7
:100200000FC6FECE97B18770982B97B93E9A86B1EC
:10021000836086B9379A369A349BFECF349A84B17C
:1002200095B108950F931F93CF938C01EBDF9093BB
:100230009D0080939C00C0E1C801E4DF20919C00F8
:1002400030919D00820F931F90939D0080939C009E
:10025000C15091F7929582958F7089279F70892759
:1002600090939D0080939C00CF911F910F910895D2
:10027000969A2FE58AEE90E0215080409040E1F779
:1002800000C0000096982FE58AEE90E02150804053
:100290009040E1F700C00000089524EF31E082B300
:1002A000805882BB86EA8A95F1F700C02150310957
:1002B000B1F70895833D910508F049C0FC01ED5E5A
:1002C000FF4F099480E390E008958FE490E0089553
:1002D00086E690E008958DE690E008958DE790E041
:1002E000089587E090E008958FE790E008958FE605
:1002F00090E0089587E790E008958CE790E00895F6
:1003000089E390E008958EE590E0089589E790E014
:10031000089581E790E0089586E790E0089588E3E6
:1003200090E0089587E390E008958EE390E00895CB
:100330008DE690E0089588E790E0089583E790E0E7
:10034000089580E890E0089580E090E00895089591
:100350008FE390E008958BE590E00895AF92BF920F
:10036000CF92DF92EF92FF920F931F93CF93DF9381
:10037000EC019C013695279536952795369527955E
:10038000A5ECB0E21CD58C01129502950F700127E7
:100390001F700127C8018EDF5C0128EE33E0029F49
:1003A000C001039F900D129F900D1124C81BD90B03
:1003B0009E013695279536952795ABE7B4E1FFD496
:1003C0008C0116950795C80175DF6C0124E6209F06
:1003D000C001219F900D1124C81BD90B9E01ADECCB
:1003E000BCECEDD48C0116950795169507951695DE
:1003F0000795C8015FDF7C01C801880F991F000FB6
:10040000111F000F111F000F111F080F191FCE0120
:10041000801B910B4FDFB0926900A0926800D092D0
:100420007300C0927200F0929700E0929600909351
:100430008D0080938C00DF91CF911F910F91FF90E1
:10044000EF90DF90CF90BF90AF900895CF93DF9360
:1004500085DFC2E3D0E082B3876082BB939880914E
:1004600068009091690026DF88BB81EE94E00197D7
:10047000F1F700C0000082B38B6082BB929880913C
:1004800072009091730016DF88BB81EE94E00197B3
:10049000F1F700C0000082B38D6082BB919880911B
:1004A00096009091970006DF88BB81EE94E001975B
:1004B000F1F700C0000082B38E6082BB90988091FB
:1004C0008C0090918D00F6DE88BB81EE94E0019760
:1004D000F1F700C0000082ED90E0ECDE88BB2197D0
:1004E00009F0B9CFDF91CF910895BF92CF92DF92FB
:1004F000EF92FF920F931F93CF93DF936B017A01DB
:100500008901D8DEB82EC2E3D0E082B3856082BB19
:100510009398B8BA81EE94E00197F1F700C000001B
:1005200082B38D6082BB9298C601C4DE88BB81EE27
:1005300094E00197F1F700C0000082B38D6082BBA8
:100540009198C701B7DE88BB81EE94E00197F1F77F
:1005500000C0000082B38E6082BB9098C801AADE02
:1005600088BB81EE94E00197F1F700C0000082EDB6
:1005700090E0A0DE88BB219741F6DF91CF911F91DB
:100580000F91FF90EF90DF90CF90BF900895CF92A2
:10059000DF92EF92FF920F931F93CF93DF936C0143
:1005A0007B018A01E9019C0142ED50E062ED70E0BF
:1005B00082ED90E09ADF9701A60162ED70E082ED96
:1005C00090E093DF9801A701B60182ED90E08DDF06
:1005D0009E01A801B701C60188DF22ED30E0AE011F
:1005E000B801C70182DF22ED30E042ED50E0BE01EC
:1005F000C8017BDF22ED30E042ED50E062ED70E0BB
:10060000CE0173DF22ED30E042ED50E062ED70E0AC
:1006100082ED90E06ADFDF91CF911F910F91FF9003
:10062000EF90DF90CF900895CF93DF93EC019B0183
:1006300048E250E062ED70E082ED90E0A8DFCE018C
:100640008DDE20918C0030918D004091960050916C
:100650009700609172007091730080916800909192
:10066000690095DFDF91CF91089584B3877E84BBC5
:1006700085B3886185BB8FEF87BB81B38F6081BBFA
:1006800081B3806F81BB82B38F7082BB08950F935B
:100690001F93CF93DF9300E810E0C0E0D0E0F801B3
:1006A00011821082CE01BEDDE3ECF9E03197F1F763
:1006B00000C00000F801819391938F0117B883EC7B
:1006C00099E00197F1F700C000002196C330D105F1
:1006D00031F7E0E8F0E0408151815093770040939A
:1006E0007600C281D381D0939B00C0939A0024816D
:1006F0003581ADECBCEC63D396958795969587953F
:10070000969587959093890080938800BA0180E040
:1007100090E064D22FE035E843E950E4C5D225E803
:100720003BEE41ED5EE3C0D22DD270937D0060932D
:100730007C00BE0180E090E051D22FE035E843E933
:1007400050E4B2D225E83BEE41ED5EE3ADD21AD2E1
:100750007093910060939000CB01DF91CF911F9136
:100760000F910895CF93DF93809162009091630081
:1007700032D3EC0190938B0080938A0080916000CB
:100780009091610028D390939500809394002091DC
:100790007C0030917D002C173D0738F520919000AA
:1007A000309191002817390708F048C081E090E0A7
:1007B000909367008093660090936D0080936C0027
:1007C000949A959A9093710080937000909387000B
:1007D0008093860020917C0030917D0080918A007A
:1007E00090918B002817390748F1209190003091A3
:1007F000910080919400909195002817390708F492
:100800006BC0109267001092660010926D001092FB
:100810006C0094989598109271001092700010924C
:1008200087001092860020917C0030917D0080919D
:100830008A0090918B002817390750F5209190007D
:10084000309191008091940090919500281739077C
:10085000F0F181E090E09093670080936600109241
:100860006D0010926C00949A95989093710080930B
:100870007000109287001092860020917C003091C9
:100880007D0080918A0090918B0028173907F8F03D
:10089000209190003091910080919400909195006A
:1008A00028173907A0F4109267001092660081E0C3
:1008B00090E090936D0080936C009498959A1092BC
:1008C0007100109270009093870080938600809151
:1008D0008600909187000CC020918A0030918B0097
:1008E00080917C0090917D0082179307E0F6EFCF16
:1008F000DF91CF9108953EC0CADE60918A00709169
:100900008B006F5F7F4F80E090E068D12FE035E88B
:1009100043E950E4C9D125E83BEE41ED5EE3C4D1A3
:1009200031D170938B0060938A00CB018FDD89EF0A
:1009300090E00197F1F700C0000060918A0070918B
:100940008B0080916200909163004AD280918A006E
:1009500090918B00803D974020F010928B00109278
:100960008A0080918800909189004597049710F043
:1009700094DC3CC080918800909189004597049751
:1009800008F4BACF33C083DE60918A0070918B0087
:100990006150710980E090E021D12FE035E843E912
:1009A00050E482D125E83BEE41ED5EE37DD1EAD013
:1009B00070938B0060938A00CB0148DD89EF90E053
:1009C0000197F1F700C0000060918A0070918B00E0
:1009D000809162009091630003D280918800909191
:1009E00089004A974D9710F058DC46C080918800E6
:1009F000909189004A974D9730F23EC048DE609151
:100A00009400709195006F5F7F4F80E090E0E6D09A
:100A10002FE035E843E950E447D125E83BEE41EDCE
:100A20005EE342D1AFD07093950060939400CB0108
:100A30000DDD89EF90E00197F1F700C000006091B3
:100A40009400709195008091600090916100C8D1F0
:100A50008091940090919500803D974020F01092F5
:100A60009500109294008091880090918900C89719
:100A70000E9710F012DC3DC08091880090918900A3
:100A8000C8970E9708F4BACF34C001DE6091940085
:100A9000709195006150710980E090E09FD02FE047
:100AA00035E843E950E400D125E83BEE41ED5EE353
:100AB000FBD068D07093950060939400CB01C6DCA6
:100AC00089EF90E00197F1F700C000006091940079
:100AD00070919500809160009091610081D180912A
:100AE00088009091890087549109439710F0D5DBD5
:100AF00008958091880090918900875491094397C7
:100B000020F20895B2DDC9DBB3DB9C9922C081E0FD
:100B100090E090936F0080936E00BFDB13C02CE3D6
:100B200030E042E850E066E970E082ED90E02FDDD1
:100B3000AEDDE1DE9B9906C0B0DB10926F00109233
:100B40006E00E3CF80916E0090916F00019739F3B2
:100B5000DCCF9DDD07DE409170005091710061E0B7
:100B600070E080917C0090917D005EDD4091860078
:100B70005091870062E070E0809190009091910028
:100B800053DDC3CF70D088F09F5790F0B92F9927CD
:100B9000B751A0F0D1F0660F771F881F991F1AF088
:100BA000BA95C9F712C0B13081F077D0B1E008959D
:100BB00074C0672F782F8827B85F39F0B93FCCF31E
:100BC000869577956795B395D9F73EF4909580957E
:100BD000709561957F4F8F4F9F4F0895E89409C09E
:100BE00097FB3EF490958095709561957F4F8F4F60
:100BF0009F4F9923A9F0F92F96E9BB279395F69576
:100C0000879577956795B795F111F8CFFAF4BB0FF3
:100C100011F460FF1BC06F5F7F4F8F4F9F4F16C057
:100C2000882311F096E911C0772321F09EE8872FE1
:100C3000762F05C0662371F096E8862F70E060E09D
:100C40002AF09A95660F771F881FDAF7880F969516
:100C5000879597F9089557FD9058440F551F59F0FF
:100C60005F3F71F04795880F97FB991F61F09F3F99
:100C700079F087950895121613061406551FF2CFC2
:100C80004695F1DF08C0161617061806991FF1CF12
:100C900086957105610508940895E894BB27662739
:100CA0007727CB0197F908950BD078C069D028F049
:100CB0006ED018F0952309F05AC05FC01124EECF12
:100CC000CADFA0F3959FD1F3950F50E0551F629FA7
:100CD000F001729FBB27F00DB11D639FAA27F00D95
:100CE000B11DAA1F649F6627B00DA11D661F829FBC
:100CF0002227B00DA11D621F739FB00DA11D621FA1
:100D0000839FA00D611D221F749F3327A00D611DBD
:100D1000231F849F600D211D822F762F6A2F11249F
:100D20009F5750408AF0E1F088234AF0EE0FFF1FF2
:100D3000BB1F661F771F881F91505040A9F79E3F29
:100D4000510570F014C0AACF5F3FECF3983EDCF37E
:100D5000869577956795B795F795E7959F5FC1F766
:100D6000FE2B880F911D9695879597F9089597F911
:100D70009F6780E870E060E008959FEF80EC089541
:100D800000240A941616170618060906089500246A
:100D90000A9412161306140605060895092E0394E4
:100DA000000C11F4882352F0BB0F40F4BF2B11F458
:100DB00060FF04C06F5F7F4F8F4F9F4F0895A29FCA
:100DC000B001B39FC001A39F01D0B29F700D811DE0
:100DD0001124911D0895A8E1B0E042E050E005C063
:100DE00012D0272F11C0DC01CB01FC01E199FECF0D
:100DF00006C0FFBBEEBBE09A31960DB20D9241509A
:100E00005040B8F70895262FE199FECF9FBB8EBBC7
:100E10002DBB0FB6F894E29AE19A0FBE01960895A1
:040E2000F894FFCF74
:040E240008000400BE
:00000001FF
