:10000000E5C0FFC0FEC0FDC0FCC0FBC0FAC0F9C027
:10001000F8C0F7C0F6C0F5C0F4C0F3C0F2C0F1C03C
:10002000F0C0EFC0EEC096C14FC197C150C152C1E0
:1000300054C156C158C15AC15CC18BC18AC189C162
:1000400088C187C186C185C184C183C182C154C1B1
:1000500080C17FC17EC17DC17CC17BC17AC179C1B4
:1000600078C14DC176C175C174C173C172C171C10E
:1000700070C16FC16EC146C16CC16BC16AC169C13B
:1000800068C167C166C165C164C13FC162C161C168
:1000900060C15FC15EC15DC15CC15BC15AC138C195
:1000A00058C157C156C155C154C153C152C151C1A4
:1000B00050C131C14EC14DC14CC14BC14AC149C1F2
:1000C00048C147C146C12AC144C143C142C141C11F
:1000D00040C13FC13EC13DC13CC13CC13AC139C133
:1000E00038C137C136C135C134C133C132C119C17C
:1000F00030C12FC12EC12DC12CC12BC12AC129C194
:1001000028C112C126C125C124C123C122C121C1D8
:1001100020C11FC11EC10BC11CC11BC11AC119C105
:1001200018C117C116C115C114C104C112C111C132
:1001300010C10FC10EC10DC10CC10BC10AC1FDC060
:1001400008C107C106C105C104C103C102C101C183
:1001500000C1F6C0FEC0FDC0FCC0FBC0FAC0F9C0C3
:10016000F8C0F7C0F6C0F5C0F4C0F3C0F2C0F1C0EB
:10017000F0C0EFC0EEC0EDC0ECC0EBC0EAC0E9C01B
:10018000E8C0E7C0E6C0E5C0E4C0E3C0E2C0E1C04B
:10019000E0C0DFC0DEC0DDC0DCC0DBC0DAC0D9C07B
:1001A000D8C0D7C0D6C0D5C0D4C0D3C0D2C0D1C0AB
:1001B000D0C0CFC0CEC0C7C0CCC0CBC0CAC0C9C0E1
:1001C000C8C0C7C0C6C0C5C0C4C0C0C011241FBEFF
:1001D000CFE5D4E0DEBFCDBF10E0A0E6B0E0E4E8BC
:1001E000FDE002C005900D92A836B107D9F720E0D6
:1001F000A8E6B0E001C01D92A539B207E1F72DD401
:10020000BFC5FECE97B18770982B97B93E9A86B13D
:10021000836086B9379A369A349BFECF349A84B17C
:1002200095B108950F931F93CF938C01EBDF9093BB
:10023000940080939300C0E1C801E4DF2091930013
:1002400030919400820F931F9093940080939300B9
:10025000C15091F795958795959587959595879533
:10026000959587959093940080939300CF911F91DB
:100270000F910895969A2FE58AEE90E021508040E4
:100280009040E1F700C0000096982FE58AEE90E0DC
:10029000215080409040E1F700C00000089524EF15
:1002A00031E082B3805882BB86EA8A95F1F700C0BC
:1002B00021503109B1F70895833D910508F049C0F7
:1002C000FC01ED5EFF4F099486E090E008958FE415
:1002D00090E0089586E690E008958DE690E0089518
:1002E0008DE790E0089587E090E008958FE790E033
:1002F00008958FE690E0089587E790E008958CE7F1
:1003000090E0089589E390E008958EE590E00895E7
:1003100089E790E0089581E790E0089586E790E00E
:10032000089588E390E0089587E390E008958EE3D0
:1003300090E008958DE690E0089588E790E00895B4
:1003400083E790E0089580E890E0089580E090E0F1
:10035000089508958FE390E008958BE590E0089567
:10036000AF92BF92CF92DF92EF92FF920F931F93C3
:10037000CF93DF935C0168EE73E0B6D4CB019CDFD2
:100380007C010F2EF8E7CF2EF0E0DF2EF02DF601E6
:100390008383C50164E670E0A7D4CB01CAE0D0E056
:1003A000BE01A2D489DF8C01F6018283C501BE01A2
:1003B0009BD45C01CB01BE0197D47EDFEC01F6013A
:1003C0008183C50179DFF6018083FF24F0926D00FF
:1003D000E0926C00112710937D0000937C00DD27D4
:1003E000D0938E00C0938D00992790938A008093BC
:1003F0008900DF91CF911F910F91FF90EF90DF90D7
:10040000CF90BF90AF900895CF93DF93A9DFC2E361
:10041000D0E082B3876082BB939880916C0090910A
:100420006D004ADF88BB81EE94E00197F1F700C0D0
:10043000000082B38B6082BB929880917C00909187
:100440007D003ADF88BB81EE94E00197F1F700C0B0
:10045000000082B38D6082BB919880918D00909155
:100460008E002ADF88BB81EE94E00197F1F700C08F
:10047000000082B38E6082BB909880918900909139
:100480008A001ADF88BB81EE94E00197F1F700C083
:10049000000082ED90E010DF88BB219709F0B9CF12
:1004A000DF91CF910895BF92CF92DF92EF92FF92AA
:1004B0000F931F93CF93DF936B017A018901FCDEC9
:1004C000B82EC2E3D0E082B3856082BB9398B8BAFD
:1004D00081EE94E00197F1F700C0000082B38D60D7
:1004E00082BB9298C601E8DE88BB81EE94E001975A
:1004F000F1F700C0000082B38D6082BB9198C70104
:10050000DBDE88BB81EE94E00197F1F700C00000CC
:1005100082B38E6082BB9098C801CEDE88BB81EE2C
:1005200094E00197F1F700C0000082ED90E0C4DE96
:1005300088BB219741F6DF91CF911F910F91FF90DA
:10054000EF90DF90CF90BF900895CF92DF92EF921F
:10055000FF920F931F93CF93DF936C017B018A016E
:10056000E9019C0142ED50E062ED70E082ED90E027
:100570009ADF9701A60162ED70E082ED90E093DFD3
:100580009801A701B60182ED90E08DDF9E01A801E0
:10059000B701C60188DF22ED30E0AE01B801C70126
:1005A00082DF22ED30E042ED50E0BE01C8017BDF8A
:1005B00022ED30E042ED50E062ED70E0CE0173DFFD
:1005C00022ED30E042ED50E062ED70E082ED90E02F
:1005D0006ADFDF91CF911F910F91FF90EF90DF9035
:1005E000CF90089584B3877E84BB85B3886185BB33
:1005F0008FEF87BB81B38F6081BB81B3806F81BB7D
:1006000082B38F7082BB08950F931F93CF93DF93B4
:1006100004E810E0C0E0D0E0F8011082CE0102DE74
:10062000E3ECF9E03197F1F700C00000F8018193A5
:100630008F0117B883EC99E00197F1F700C0000033
:100640002196C330D10541F7E4E8F0E0808190E0E5
:1006500090937F0080937E00818190E09093920040
:1006600080939100828190E090938800809387002E
:1006700080917E0090917F008091910090919200F6
:10068000609187007091880080E090E03CD228E182
:1006900038E04CEE5EE39DD20AD2CB01DF91CF91E0
:1006A0001F910F910895809162009091630043D350
:1006B0009093670080936600809160009091610044
:1006C0003AD3909365008093640020917E0030912E
:1006D0007F00809166009091670028173907B8F471
:1006E000209191003091920080916400909165007A
:1006F0002817390760F481E090E090936B008093B5
:100700006A009093750080937400949A959A209152
:100710007E0030917F008091660090916700821783
:10072000930758F020917E0030917F008091660001
:10073000909167002817390701F5209191003091B9
:10074000920080916400909165008217930758F0A1
:100750002091910030919200809164009091650009
:100760002817390751F410926B0010926A0010920A
:100770007500109274009498959820917E003091A5
:100780007F0080916600909167002817390710F567
:1007900020919100309192008091640090916500C9
:1007A0008217930758F02091910030919200809128
:1007B0006400909165002817390761F481E090E0AA
:1007C00090936B0080936A001092750010927400F1
:1007D000949A959820917E0030917F0080916600D8
:1007E000909167008217930758F020917E00309116
:1007F0007F00809166009091670028173907B9F44F
:100800002091910030919200809164009091650058
:100810002817390760F410926B0010926A0081E08B
:1008200090E090937500809374009498959A089541
:1008300080918700909188008D3D9105A8F52BC08F
:10084000E3DE8091660090916700873E9340F8F464
:100850008091660090916700019690936700809365
:1008600066008091660090916700CEDD6091660021
:1008700070916700809162009091630061D28091D5
:100880008700909188008D3D9105B0F404C01092CE
:100890006500109264008091870090918800813FEC
:1008A000910508F047C03DC0809187009091880075
:1008B0008B3E910528F2EFCF8091870090918800C0
:1008C0008B3E910508F4BCCFE6CF9EDE809166009A
:1008D00090916700892BF9F08091660090916700F4
:1008E00001979093670080936600809166009091D5
:1008F00067008ADD609166007091670080916200F8
:10090000909163001DD28091870090918800813F73
:100910009105C0F406C087EE93E090936500809344
:10092000640080918700909188008B3A910508F0CF
:1009300046C03CC080918700909188008A3F910515
:1009400020F2EFCF80918700909188008A3F910537
:1009500008F4BBCFE6CF58DE80916400909165002B
:10096000873E9340F8F48091640090916500019671
:10097000909365008093640080916400909165007D
:1009800043DD6091640070916500809160009091FA
:100990006100D6D180918700909188008B3A9105B3
:1009A000B0F404C01092650010926400809187003A
:1009B000909188008734910508F03FC00895809198
:1009C000870090918800883C910528F2EFCF8091B4
:1009D000870090918800883C910508F4BCCFE6CF51
:1009E00013DE8091640090916500892BF9F080916D
:1009F0006400909165000197909365008093640076
:100A00008091640090916500FFDC609164007091BA
:100A10006500809160009091610092D18091870083
:100A2000909188008734910580F4089587EE93E0D3
:100A30009093650080936400089580918700909161
:100A400088008436910560F2089580918700909126
:100A500088008436910520F20895C4DD20DC0ADC8C
:100A6000C1E0D0E09C9920C0D0937700C09376007D
:100A700016DC13C02CE330E042E850E066E970E099
:100A800082ED90E062DDC0DDD3DE9B9906C007DC1D
:100A90001092770010927600E5CF809176009091C9
:100AA0007700019739F3DECFAFDDFDDDDBCF70D00E
:100AB00088F09F5790F0B92F9927B751A0F0D1F047
:100AC000660F771F881F991F1AF0BA95C9F712C0D1
:100AD000B13081F077D0B1E0089574C0672F782FDE
:100AE0008827B85F39F0B93FCCF38695779567953D
:100AF000B395D9F73EF490958095709561957F4FA9
:100B00008F4F9F4F0895E89409C097FB3EF490954E
:100B10008095709561957F4F8F4F9F4F9923A9F0D6
:100B2000F92F96E9BB279395F69587957795679565
:100B3000B795F111F8CFFAF4BB0F11F460FF1BC0A9
:100B40006F5F7F4F8F4F9F4F16C0882311F096E93C
:100B500011C0772321F09EE8872F762F05C06623EA
:100B600071F096E8862F70E060E02AF09A95660FA3
:100B7000771F881FDAF7880F9695879597F908955C
:100B800057FD9058440F551F59F05F3F71F047953E
:100B9000880F97FB991F61F09F3F79F08795089523
:100BA000121613061406551FF2CF4695F1DF08C042
:100BB000161617061806991FF1CF8695710561055F
:100BC00008940895E894BB2766277727CB0197F907
:100BD00008950BD078C069D028F06ED018F0952316
:100BE00009F05AC05FC01124EECFCADFA0F3959F71
:100BF000D1F3950F50E0551F629FF001729FBB2704
:100C0000F00DB11D639FAA27F00DB11DAA1F649FAF
:100C10006627B00DA11D661F829F2227B00DA11D62
:100C2000621F739FB00DA11D621F839FA00D611DE8
:100C3000221F749F3327A00D611D231F849F600D09
:100C4000211D822F762F6A2F11249F5750408AF042
:100C5000E1F088234AF0EE0FFF1FBB1F661F771FCE
:100C6000881F91505040A9F79E3F510570F014C065
:100C7000AACF5F3FECF3983EDCF3869577956795B6
:100C8000B795F795E7959F5FC1F7FE2B880F911DEC
:100C90009695879597F9089597F99F6780E870E092
:100CA00060E008959FEF80EC089500240A941616E2
:100CB000170618060906089500240A94121613064A
:100CC000140605060895092E0394000C11F48823D8
:100CD00052F0BB0F40F4BF2B11F460FF04C06F5FF4
:100CE0007F4F8F4F9F4F089597FB072E16F4009468
:100CF00006D077FD08D00BD007FC05D03EF49095C8
:100D000081959F4F0895709561957F4F0895AA1B17
:100D1000BB1B51E107C0AA1FBB1FA617B70710F0E6
:100D2000A61BB70B881F991F5A95A9F78095909518
:100D3000BC01CD010895A8E1B0E042E050E005C05B
:100D400012D0272F11C0DC01CB01FC01E199FECFAD
:100D500006C0FFBBEEBBE09A31960DB20D9241503A
:100D60005040B8F70895262FE199FECF9FBB8EBB68
:100D70002DBB0FB6F894E29AE19A0FBE0196089542
:040D8000F894FFCF15
:080D8400080004001900190029
:00000001FF
