:10000000E5C0FFC0FEC0FDC0FCC0FBC0FAC0F9C027
:10001000F8C0F7C0F6C0F5C0F4C0F3C0F2C0F1C03C
:10002000F0C0EFC0EEC095C14EC196C14FC151C1E5
:1000300053C155C157C159C15BC18AC189C188C16A
:1000400087C186C185C184C183C182C181C153C1B9
:100050007FC17EC17DC17CC17BC17AC179C178C1BC
:1000600077C14CC175C174C173C172C171C170C116
:100070006FC16EC16DC145C16BC16AC169C168C143
:1000800067C166C165C164C163C13EC161C160C170
:100090005FC15EC15DC15CC15BC15AC159C137C19D
:1000A00057C156C155C154C153C152C151C150C1AC
:1000B0004FC130C14DC14CC14BC14AC149C148C1FA
:1000C00047C146C145C129C143C142C141C140C127
:1000D0003FC13EC13DC13CC13BC13BC139C138C13B
:1000E00037C136C135C134C133C132C131C118C184
:1000F0002FC12EC12DC12CC12BC12AC129C128C19C
:1001000027C111C125C124C123C122C121C120C1E0
:100110001FC11EC11DC10AC11BC11AC119C118C10D
:1001200017C116C115C114C113C103C111C110C13A
:100130000FC10EC10DC10CC10BC10AC109C1FCC068
:1001400007C106C105C104C103C102C101C100C18B
:10015000FFC0F5C0FDC0FCC0FBC0FAC0F9C0F8C0CC
:10016000F7C0F6C0F5C0F4C0F3C0F2C0F1C0F0C0F3
:10017000EFC0EEC0EDC0ECC0EBC0EAC0E9C0E8C023
:10018000E7C0E6C0E5C0E4C0E3C0E2C0E1C0E0C053
:10019000DFC0DEC0DDC0DCC0DBC0DAC0D9C0D8C083
:1001A000D7C0D6C0D5C0D4C0D3C0D2C0D1C0D0C0B3
:1001B000CFC0CEC0CDC0C6C0CBC0CAC0C9C0C8C0E9
:1001C000C7C0C6C0C5C0C4C0C3C0BFC011241FBE05
:1001D000CFE5D4E0DEBFCDBF10E0A0E6B0E0ECE9B3
:1001E000FDE002C005900D92A436B107D9F720E0DA
:1001F000A4E6B0E001C01D92AE39B207E1F75FD4CA
:10020000CBC5FECE97B18770982B97B93E9A86B131
:10021000836086B9379A359A369A349BFECF349AE2
:1002200084B195B108950F931F93CF938C01EADFAA
:1002300090939D0080939C00C0E1C801E3DF209172
:100240009C0030919D00820F931F90939D0080939E
:100250009C00C15091F7929582958F7089279F706D
:10026000892790939D0080939C00CF911F910F91BF
:100270000895969A2FE58AEE90E0215080409040B4
:10028000E1F700C0000096982FE58AEE90E021503B
:1002900080409040E1F700C00000089524EF31E075
:1002A00082B3805882BB86EA8A95F1F700C021505C
:1002B0003109B1F70895833D910508F049C0FC016B
:1002C000ED5EFF4F099480E390E008958FE490E0A5
:1002D000089586E690E008958DE690E008958DE714
:1002E00090E0089587E090E008958FE790E008950A
:1002F0008FE690E0089587E790E008958CE790E01E
:10030000089589E390E008958EE590E0089589E7E7
:1003100090E0089581E790E0089586E790E00895E1
:1003200088E390E0089587E390E008958EE390E0FD
:1003300008958DE690E0089588E790E0089583E7BA
:1003400090E0089580E890E0089580E090E00895BE
:1003500008958FE390E008958BE590E00895AF92C3
:10036000BF92CF92DF92EF92FF920F931F93CF93A2
:10037000DF93EC019C0136952795369527953695A8
:100380002795A5ECB0E2D7D48C01129502950F7099
:1003900001271F700127C8018EDF5C0128EE33E0C2
:1003A000029FC001039F900D129F900D1124C81B46
:1003B000D90B9E013695279536952795ABE7B4E185
:1003C000BAD48C0116950795C80175DF6C0124E637
:1003D000209FC001219F900D1124C81BD90B9E01A5
:1003E000ADECBCECA8D48C01169507951695079535
:1003F00016950795C8015FDF7C01C801880F991F1A
:10040000000F111F000F111F000F111F080F191FE0
:10041000CE01801B910B4FDFB0926900A092680063
:10042000D0927300C0927200F0929700E092960012
:1004300090938D0080938C00DF91CF911F910F914D
:10044000FF90EF90DF90CF90BF90AF9008950F9303
:100450001F93CF93DF93EB0182DF209709F44CC009
:1004600000E010E082B3876082BB939880916800BF
:100470009091690020DF88BB81EE94E00197F1F74D
:1004800000C0000082B38B6082BB929880917200A2
:100490009091730010DF88BB81EE94E00197F1F733
:1004A00000C0000082B38D6082BB9198809196005D
:1004B0009091970000DF88BB81EE94E00197F1F7FF
:1004C00000C0000082B38E6082BB909880918C0047
:1004D00090918D00F0DE88BB81EE94E00197F1F7FA
:1004E00000C0000082ED90E0E6DE88BB0F5F1F4F8A
:1004F0000C171D0709F0B6CFDF91CF911F910F9117
:100500000895BF92CF92DF92EF92FF920F931F93C5
:10051000CF93DF936B017A018901CDDEB82EC2E360
:10052000D0E082B3856082BB9398B8BA81EE94E044
:100530000197F1F700C0000082B38D6082BB9298F2
:10054000C601B9DE88BB81EE94E00197F1F700C0E7
:10055000000082B38D6082BB9198C701ACDE88BB7E
:1005600081EE94E00197F1F700C0000082B38E6045
:1005700082BB9098C8019FDE88BB81EE94E0019712
:10058000F1F700C0000082ED90E095DE88BB219776
:1005900041F6DF91CF911F910F91FF90EF90DF9087
:1005A000CF90BF90089584B3877E84BB85B3886164
:1005B00085BB8FEF87BB81B38F6081BB81B3806FB9
:1005C00081BB82B38F7082BB08950F931F93CF932B
:1005D000DF9300E810E0C0E0D0E0F8011182108263
:1005E000CE0121DEE3ECF9E03197F1F700C0000025
:1005F000F801819391938F0117B883EC99E00197EB
:10060000F1F700C000002196C330D10531F7E0E8D2
:10061000F0E0408151815093770040937600C28191
:10062000D381D0939B00C0939A0024813581ADEC97
:10063000BCEC81D3969587959695879596958795E9
:100640009093890080938800BA0180E090E082D284
:100650002FE035E843E950E4E3D225E83BEE41EDF5
:100660005EE3DED24BD270937D0060937C00BE01CE
:1006700080E090E06FD22FE035E843E950E4D0D23B
:1006800025E83BEE41ED5EE3CBD238D2709391008A
:1006900060939000CB01DF91CF911F910F9108954E
:1006A000809162009091630052D3BC0180E090E0A1
:1006B00051D22FE035E843E950E4B2D225E83BEED1
:1006C00041ED5EE3ADD21AD270938B0060938A0045
:1006D00080916000909161003AD3BC0180E090E08D
:1006E00039D22FE035E843E950E49AD225E83BEED1
:1006F00041ED5EE395D202D2709395006093940031
:1007000064DF21E030E040E550E068E270E082ED37
:1007100090E0F7DE6AEF70E080917C0090917D00C0
:1007200096DE22E030E040E550E068E270E082EDE5
:1007300090E0E7DE6AEF70E0809190009091910088
:1007400086DE20917C0030917D0080918A0090911E
:100750008B002817390758F52091900030919100AF
:1007600080919400909195002817390708F048C0AF
:1007700081E090E0909367008093660090936D0015
:1007800080936C00949A959A909371008093700076
:10079000909387008093860020917C0030917D00AB
:1007A00080918A0090918B002817390748F1209199
:1007B00090003091910080919400909195002817BD
:1007C000390708F46BC0109267001092660010920F
:1007D0006D0010926C009498959810927100109290
:1007E0007000109287001092860020917C0030915A
:1007F0007D0080918A0090918B002817390750F571
:1008000020919000309191008091940090919500FA
:1008100028173907F0F181E090E09093670080930A
:10082000660010926D0010926C00949A95989093C7
:1008300071008093700010928700109286002091C2
:100840007C0030917D0080918A0090918B00281768
:100850003907F8F020919000309191008091940038
:100860009091950028173907A0F410926700109214
:10087000660081E090E090936D0080936C00949806
:10088000959A109271001092700090938700809357
:1008900086008091860090918700089520918A00BB
:1008A00030918B0080917C0090917D00821793079E
:1008B000E0F6EFCFCF93DF932CE330E042E850E057
:1008C00066E970E082ED90E01CDE8091620090911C
:1008D00063003DD290938F0080938E0080916000E2
:1008E0009091610034D290937B0080937A006DDE0A
:1008F00030C06BDE80918E0090918F0001969093B6
:100900008F0080938E0069E170E0A1DD89EF90E0B7
:100910000197F1F700C0000060918E0070918F0088
:10092000809162009091630017D280918E00909127
:100930008F00883E934020F010928B0010928A0026
:1009400080918800909189004597049710F0A6DC6B
:1009500037C080918800909189004597049748F2AC
:100960002FC033DE80918E0090918F00019790937D
:100970008F0080938E0069E170E069DD89EF90E07F
:100980000197F1F700C0000060918E0070918F0018
:100990008091620090916300DFD180918E009091F0
:1009A0008F00892B21F4D0938F00C0938E0080910B
:1009B0008800909189004A974D9720F06FDC3AC0EB
:1009C000C7EED3E080918800909189004A974D97B7
:1009D00040F230C0FADD80917A0090917B00019660
:1009E00090937B0080937A0069E170E030DD89EFBD
:1009F00090E00197F1F700C0000060917A007091DB
:100A00007B008091600090916100A6D180917A0076
:100A100090917B00883E934020F010927B001092D2
:100A20007A008091880090918900C8970E9710F005
:100A300035DC38C08091880090918900C8970E9766
:100A400048F230C0C2DD80917A0090917B0001971E
:100A500090937B0080937A0069E170E0F8DC89EF85
:100A600090E00197F1F700C0000060917A0070916A
:100A70007B0080916000909161006ED180917A003E
:100A800090917B00892B21F4D0937B00C0937A0056
:100A9000809188009091890087549109439720F0B4
:100AA000FDDB0AC0C7EED3E08091880090918900F9
:100AB00087549109439730F2DF91CF91089573DD08
:100AC000EDDBD7DBC1E0D0E09C9916C0D0936F007E
:100AD000C0936E00E3DB09C0EDDE9B9906C0DEDB50
:100AE00010926F0010926E00EFCF80916E00909187
:100AF0006F00019789F3E8CFD3DDE6CF70D088F09F
:100B00009F5790F0B92F9927B751A0F0D1F0660FF9
:100B1000771F881F991F1AF0BA95C9F712C0B13014
:100B200081F077D0B1E0089574C0672F782F8827BF
:100B3000B85F39F0B93FCCF3869577956795B39553
:100B4000D9F73EF490958095709561957F4F8F4FC2
:100B50009F4F0895E89409C097FB3EF490958095C7
:100B6000709561957F4F8F4F9F4F9923A9F0F92F73
:100B700096E9BB279395F695879577956795B795F1
:100B8000F111F8CFFAF4BB0F11F460FF1BC06F5FD7
:100B90007F4F8F4F9F4F16C0882311F096E911C0E9
:100BA000772321F09EE8872F762F05C0662371F00A
:100BB00096E8862F70E060E02AF09A95660F771F1E
:100BC000881FDAF7880F9695879597F9089557FD4E
:100BD0009058440F551F59F05F3F71F04795880FAB
:100BE00097FB991F61F09F3F79F087950895121642
:100BF00013061406551FF2CF4695F1DF08C01616EE
:100C000017061806991FF1CF86957105610508949E
:100C10000895E894BB2766277727CB0197F90895B5
:100C20000BD078C069D028F06ED018F0952309F069
:100C30005AC05FC01124EECFCADFA0F3959FD1F355
:100C4000950F50E0551F629FF001729FBB27F00D7A
:100C5000B11D639FAA27F00DB11DAA1F649F6627CF
:100C6000B00DA11D661F829F2227B00DA11D621F1E
:100C7000739FB00DA11D621F839FA00D611D221FD8
:100C8000749F3327A00D611D231F849F600D211DBC
:100C9000822F762F6A2F11249F5750408AF0E1F05F
:100CA00088234AF0EE0FFF1FBB1F661F771F881FA8
:100CB00091505040A9F79E3F510570F014C0AACF43
:100CC0005F3FECF3983EDCF3869577956795B79593
:100CD000F795E7959F5FC1F7FE2B880F911D9695BD
:100CE000879597F9089597F99F6780E870E060E02D
:100CF00008959FEF80EC089500240A9416161706B5
:100D000018060906089500240A94121613061406FC
:100D100005060895092E0394000C11F4882352F05F
:100D2000BB0F40F4BF2B11F460FF04C06F5F7F4F17
:100D30008F4F9F4F0895A29FB001B39FC001A39F03
:100D400001D0B29F700D811D1124911D0895A8E15D
:100D5000B0E042E050E005C012D0272F11C0DC0106
:100D6000CB01FC01E199FECF06C0FFBBEEBBE09AD0
:100D700031960DB20D9241505040B8F70895262F8C
:100D8000E199FECF9FBB8EBB2DBB0FB6F894E29AC4
:0C0D9000E19A0FBE01960895F894FFCF81
:040D9C000800040047
:00000001FF
