:10000000E5C0FFC0FEC0FDC0FCC0FBC0FAC0F9C027
:10001000F8C0F7C0F6C0F5C0F4C0F3C0F2C0F1C03C
:10002000F0C0EFC0EEC094C14DC195C14EC150C1EA
:1000300052C154C156C158C15AC189C188C187C172
:1000400086C185C184C183C182C181C180C152C1C1
:100050007EC17DC17CC17BC17AC179C178C177C1C4
:1000600076C14BC174C173C172C171C170C16FC11E
:100070006EC16DC16CC144C16AC169C168C167C14B
:1000800066C165C164C163C162C13DC160C15FC178
:100090005EC15DC15CC15BC15AC159C158C136C1A5
:1000A00056C155C154C153C152C151C150C14FC1B4
:1000B0004EC12FC14CC14BC14AC149C148C147C102
:1000C00046C145C144C128C142C141C140C13FC12F
:1000D0003EC13DC13CC13BC13AC13AC138C137C143
:1000E00036C135C134C133C132C131C130C117C18C
:1000F0002EC12DC12CC12BC12AC129C128C127C1A4
:1001000026C110C124C123C122C121C120C11FC1E8
:100110001EC11DC11CC109C11AC119C118C117C115
:1001200016C115C114C113C112C102C110C10FC142
:100130000EC10DC10CC10BC10AC109C108C1FBC070
:1001400006C105C104C103C102C101C100C1FFC094
:10015000FEC0F4C0FCC0FBC0FAC0F9C0F8C0F7C0D4
:10016000F6C0F5C0F4C0F3C0F2C0F1C0F0C0EFC0FB
:10017000EEC0EDC0ECC0EBC0EAC0E9C0E8C0E7C02B
:10018000E6C0E5C0E4C0E3C0E2C0E1C0E0C0DFC05B
:10019000DEC0DDC0DCC0DBC0DAC0D9C0D8C0D7C08B
:1001A000D6C0D5C0D4C0D3C0D2C0D1C0D0C0CFC0BB
:1001B000CEC0CDC0CCC0C5C0CAC0C9C0C8C0C7C0F1
:1001C000C6C0C5C0C4C0C3C0C2C0BEC011241FBE0B
:1001D000CFE5D4E0DEBFCDBF10E0A0E6B0E0E6E0C2
:1001E000FEE002C005900D92A436B107D9F720E0D9
:1001F000A4E6B0E001C01D92AE39B207E1F78BD49E
:1002000000C6FECE97B18770982B97B93E9A86B1FB
:10021000836086B9379A369A349BFECF349A84B17C
:1002200095B108950F931F93CF938C01EBDF9093BB
:100230009D0080939C00C0E1C801E4DF20919C00F8
:1002400030919D00820F931F90939D0080939C009E
:10025000C15091F7929582958F7089279F70892759
:1002600090939D0080939C00CF911F910F910895D2
:10027000969A2FE58AEE90E0215080409040E1F779
:1002800000C0000096982FE58AEE90E02150804053
:100290009040E1F700C00000089524EF31E082B300
:1002A000805882BB86EA8A95F1F700C02150310957
:1002B000B1F70895833D910508F049C0FC01ED5E5A
:1002C000FF4F099480E390E008958FE490E0089553
:1002D00086E690E008958DE690E008958DE790E041
:1002E000089587E090E008958FE790E008958FE605
:1002F00090E0089587E790E008958CE790E00895F6
:1003000089E390E008958EE590E0089589E790E014
:10031000089581E790E0089586E790E0089588E3E6
:1003200090E0089587E390E008958EE390E00895CB
:100330008DE690E0089588E790E0089583E790E0E7
:10034000089580E890E0089580E090E00895089591
:100350008FE390E008958BE590E00895AF92BF920F
:10036000CF92DF92EF92FF920F931F93CF93DF9381
:10037000EC019C013695279536952795369527955E
:10038000A5ECB0E20DD58C01129502950F700127F6
:100390001F700127C8018EDF5C0128EE33E0029F49
:1003A000C001039F900D129F900D1124C81BD90B03
:1003B0009E013695279536952795ABE7B4E1F0D4A5
:1003C0008C0116950795C80175DF6C0124E6209F06
:1003D000C001219F900D1124C81BD90B9E01ADECCB
:1003E000BCECDED48C0116950795169507951695ED
:1003F0000795C8015FDF7C01C801880F991F000FB6
:10040000111F000F111F000F111F080F191FCE0120
:10041000801B910B4FDFB0926900A0926800D092D0
:100420007300C0927200F0929700E0929600909351
:100430008D0080938C00DF91CF911F910F91FF90E1
:10044000EF90DF90CF90BF90AF9008950F931F93E0
:10045000CF93DF93EB0182DF209709F44CC000E0DB
:1004600010E082B3876082BB93988091680090917E
:10047000690020DF88BB81EE94E00197F1F700C0AE
:10048000000082B38B6082BB929880917200909141
:10049000730010DF88BB81EE94E00197F1F700C094
:1004A000000082B38D6082BB9198809196009091FC
:1004B000970000DF88BB81EE94E00197F1F700C060
:1004C000000082B38E6082BB909880918C009091E6
:1004D0008D00F0DE88BB81EE94E00197F1F700C05B
:1004E000000082ED90E0E6DE88BB0F5F1F4F0C1727
:1004F0001D0709F0B6CFDF91CF911F910F9108959D
:10050000BF92CF92DF92EF92FF920F931F93CF9300
:10051000DF936B017A018901CDDEB82EC2E3D0E012
:1005200082B3856082BB9398B8BA81EE94E001975C
:10053000F1F700C0000082B38D6082BB9298C601C3
:10054000B9DE88BB81EE94E00197F1F700C00000AE
:1005500082B38D6082BB9198C701ACDE88BB81EE0F
:1005600094E00197F1F700C0000082B38E6082BB77
:100570009098C8019FDE88BB81EE94E00197F1F767
:1005800000C0000082ED90E095DE88BB219741F627
:10059000DF91CF911F910F91FF90EF90DF90CF905F
:1005A000BF90089584B3877E84BB85B3886185BB83
:1005B0008FEF87BB81B38F6081BB81B3806F81BBBD
:1005C00082B38F7082BB08950F931F93CF93DF93F5
:1005D00000E810E0C0E0D0E0F80111821082CE0106
:1005E00021DEE3ECF9E03197F1F700C00000F801FB
:1005F000819391938F0117B883EC99E00197F1F7FC
:1006000000C000002196C330D10531F7E0E8F0E0EA
:10061000808191819093770080937600828193818D
:1006200090939B0080939A0024813581ADECBCECC3
:10063000B7D3969587959695879596958795909338
:10064000890080938800DF91CF911F910F910895C9
:10065000CF93DF938091620090916300ADD3BC0192
:1006600080E090E0ACD22FE035E843E950E40DD3D0
:1006700021ED3CE741E753E408D375D270938B003A
:1006800060938A00809160009091610095D3BC01D5
:1006900080E090E094D22FE035E843E950E4F5D2D1
:1006A00021ED3CE741E753E4F0D25DD27093950031
:1006B0006093940089DF609176007091770080E00C
:1006C00090E07DD22FE035E843E950E4DED220E02F
:1006D00030E040E85AE3D9D221ED3CE741E753E46A
:1006E000D4D241D2EB0170937D0060937C00609185
:1006F0009A0070919B0080E090E061D22FE035E895
:1007000043E950E4C2D220E030E040E85AE3BDD2F1
:1007100021ED3CE741E753E4B8D225D29B01709329
:1007200091006093900080918A0090918B00C8178F
:10073000D90738F5809194009091950028173907D2
:1007400008F048C081E090E09093670080936600D5
:1007500090936D0080936C00949A959A9093710099
:1007600080937000909387008093860020917C0096
:1007700030917D0080918A0090918B002817390775
:1007800048F12091900030919100809194009091D7
:1007900095002817390708F499C010926700109245
:1007A000660010926D0010926C00949895981092CB
:1007B00071001092700010928700109286002091B4
:1007C0007C0030917D0080918A0090918B002817E9
:1007D000390750F52091900030919100809194005C
:1007E0009091950028173907F0F181E090E09093FF
:1007F00067008093660010926D0010926C00949ACE
:1008000095989093710080937000109287001092D9
:10081000860020917C0030917D0080918A0090912B
:100820008B0028173907F8F0209190003091910043
:10083000809194009091950028173907A0F41092A8
:1008400067001092660081E090E090936D008093C5
:100850006C009498959A1092710010927000909389
:1008600087008093860021E030E040E550E068E2B8
:1008700070E082ED90E044DE2FE78AE196E02150BF
:1008800080409040E1F700C000006AEF70E0809186
:100890007C0090917D00DADD22E030E040E550E020
:1008A00068E270E082ED90E02BDE2FE78AE196E0CF
:1008B000215080409040E1F700C000006AEF70E0F6
:1008C0008091900090919100C1DD0DC020918A002F
:1008D00030918B0080917C0090917D00821793076E
:1008E00008F0ADCFC0CFDF91CF910895CF93DF93C4
:1008F00080916200909163005FD290938F0080930B
:100900008E00809160009091610056D290937B00A0
:1009100080937A0059DE36C057DE80918E00909128
:100920008F00019690938F0080938E0062E370E0B9
:100930008DDD83EC99E00197F1F700C00000609134
:100940008E0070918F00809162009091630039D287
:1009500083EC99E00197F1F700C0000080918E00D0
:1009600090918F00883E934020F010928F0010925B
:100970008E0080918800909189004597049710F02F
:100980008CDC3DC080918800909189004597049748
:1009900018F235C019DE80918E0090918F0001977A
:1009A00090938F0080938E0062E370E04FDD83ECC4
:1009B00099E00197F1F700C0000060918E007091FE
:1009C0008F008091620090916300FBD183EC99E0ED
:1009D0000197F1F700C0000080918E0090918F0088
:1009E000892B21F4D0938F00C0938E0080918800D2
:1009F000909189004A974D9720F04FDC40C0C7EE98
:100A0000D3E080918800909189004A974D9710F229
:100A100036C0DADD80917A0090917B000196909348
:100A20007B0080937A0062E370E010DD83EC99E054
:100A30000197F1F700C0000060917A0070917B008F
:100A40008091600090916100BCD183EC99E00197A6
:100A5000F1F700C0000080917A0090917B00883E01
:100A6000934020F010927B0010927A0080918800D1
:100A700090918900C8970E9710F00FDC3EC08091CE
:100A8000880090918900C8970E9718F236C09CDDB7
:100A900080917A0090917B00019790937B008093E6
:100AA0007A0062E370E0D2DC83EC99E00197F1F721
:100AB00000C0000060917A0070917B00809160001E
:100AC000909161007ED183EC99E00197F1F700C02D
:100AD000000080917A0090917B00892B21F4D093C3
:100AE0007B00C0937A0080918800909189008754A0
:100AF0009109439720F0D1DB0BC0C7EED3E0809182
:100B000088009091890087549109439708F4BFCFDA
:100B1000DF91CF91089546DDC0DBAADBC1E0D0E0D4
:100B20009C991FC0D0936F00C0936E00B6DB12C0BB
:100B30002CE330E042E850E066E970E082ED90E0BE
:100B4000DFDCD4DE9B9906C0A8DB10926F00109208
:100B50006E00E6CF80916E0090916F00019741F397
:100B6000DFCF76DDDDCF70D088F09F5790F0B92FC2
:100B70009927B751A0F0D1F0660F771F881F991FF2
:100B80001AF0BA95C9F712C0B13081F077D0B1E050
:100B9000089574C0672F782F8827B85F39F0B93F60
:100BA000CCF3869577956795B395D9F73EF49095F4
:100BB0008095709561957F4F8F4F9F4F0895E89472
:100BC00009C097FB3EF490958095709561957F4F95
:100BD0008F4F9F4F9923A9F0F92F96E9BB27939543
:100BE000F695879577956795B795F111F8CFFAF453
:100BF000BB0F11F460FF1BC06F5F7F4F8F4F9F4F84
:100C000016C0882311F096E911C0772321F09EE8E1
:100C1000872F762F05C0662371F096E8862F70E047
:100C200060E02AF09A95660F771F881FDAF7880F21
:100C30009695879597F9089557FD9058440F551F3D
:100C400059F05F3F71F04795880F97FB991F61F04E
:100C50009F3F79F087950895121613061406551FC5
:100C6000F2CF4695F1DF08C0161617061806991F31
:100C7000F1CF86957105610508940895E894BB2726
:100C800066277727CB0197F908950BD078C069D0F4
:100C900028F06ED018F0952309F05AC05FC01124D7
:100CA000EECFCADFA0F3959FD1F3950F50E0551F0B
:100CB000629FF001729FBB27F00DB11D639FAA27B1
:100CC000F00DB11DAA1F649F6627B00DA11D661F00
:100CD000829F2227B00DA11D621F739FB00DA11D21
:100CE000621F839FA00D611D221F749F3327A00DDB
:100CF000611D231F849F600D211D822F762F6A2F77
:100D000011249F5750408AF0E1F088234AF0EE0FFB
:100D1000FF1FBB1F661F771F881F91505040A9F708
:100D20009E3F510570F014C0AACF5F3FECF3983E90
:100D3000DCF3869577956795B795F795E7959F5F6F
:100D4000C1F7FE2B880F911D9695879597F9089509
:100D500097F99F6780E870E060E008959FEF80EC6E
:100D6000089500240A941616170618060906089511
:100D700000240A9412161306140605060895092E77
:100D80000394000C11F4882352F0BB0F40F4BF2BE6
:100D900011F460FF04C06F5F7F4F8F4F9F4F089526
:100DA000A29FB001B39FC001A39F01D0B29F700D5D
:100DB000811D1124911D0895A8E1B0E042E050E0AA
:100DC00005C012D0272F11C0DC01CB01FC01E19935
:100DD000FECF06C0FFBBEEBBE09A31960DB20D927E
:100DE00041505040B8F70895262FE199FECF9FBBA0
:100DF0008EBB2DBB0FB6F894E29AE19A0FBE019616
:060E00000895F894FFCFF5
:040E060008000400DC
:00000001FF
