S01A00006164632B377365672B696E746572727570742E7372656329
S113000012C12CC12BC12AC129C128C127C126C1B3
S113001025C124C123C122C121C120C11FC11EC1C8
S11300201DC11CC11BC1C1C17AC1C2C17BC17DC17B
S11300307FC181C183C185C187C1B6C1B5C1B4C106
S1130040B3C1B2C1B1C1B0C1AFC1AEC1ADC17FC155
S1130050ABC1AAC1A9C1A8C1A7C1A6C1A5C1A4C158
S1130060A3C178C1A1C1A0C19FC19EC19DC19CC1B2
S11300709BC19AC199C171C197C196C195C194C1DF
S113008093C192C191C190C18FC16AC18DC18CC10C
S11300908BC18AC189C188C187C186C185C163C139
S11300A083C182C181C180C17FC17EC17DC17CC148
S11300B07BC15CC179C178C177C176C175C174C196
S11300C073C172C171C155C16FC16EC16DC16CC1C3
S11300D06BC16AC169C168C167C167C165C164C1D7
S11300E063C162C161C160C15FC15EC15DC144C120
S11300F05BC15AC159C158C157C156C155C154C138
S113010053C13DC151C150C14FC14EC14DC14CC17C
S11301104BC14AC149C136C147C146C145C144C1A9
S113012043C142C141C140C13FC12FC13DC13CC1D6
S11301303BC13AC139C138C137C136C135C128C103
S113014033C132C131C130C12FC12EC12DC12CC127
S11301502BC121C129C128C127C126C125C124C160
S113016023C122C121C120C11FC11EC11DC11CC187
S11301701BC11AC119C118C117C116C115C114C1B7
S113018013C112C111C110C10FC10EC10DC10CC1E7
S11301900BC10AC109C108C107C106C105C104C117
S11301A003C102C101C100C1FFC0FEC0FDC0FCC04B
S11301B0FBC0FAC0F9C0F2C0F7C0F6C0F5C0F4C085
S11301C0F3C0F2C0F1C0F0C0EFC0EBC00800000003
S11301D0BE922449123EABAAAA2ABECDCCCC4C3E38
S11301E000000080BEABAAAAAA3E00000000BF0027
S11301F00000803F0000000000084178D3BB438723
S1130200D1133D190E3CC3BD4282AD2B3E68EC8236
S113021076BED98FE1A93E4C80EFFFBE01C4FF7FBB
S11302203F000000000011241FBECFE5D4E0DEBF74
S1130230CDBF10E0A0E6B0E0E2E7F1E102C0059036
S11302400D92A436B107D9F720E0A4E6B0E001C0CE
S11302501D92A23CB207E1F7CFD489C7D1CE97B1A2
S11302608770982B97B93E9A86B1836086B9379A7E
S1130270369A349BFECF349A84B195B108950F9386
S11302801F93CF938C01EBDF9093BD008093BC0050
S1130290C0E1C801E4DF2091BC003091BD00820FB1
S11302A0931F9093BD008093BC00C15091F7929529
S11302B082958F7089279F7089279093BD008093C2
S11302C0BC00CF911F910F910895969A2FE58AEE65
S11302D090E0215080409040E1F700C000009698E3
S11302E02FE58AEE90E0215080409040E1F700C075
S11302F00000089524EF31E082B3805882BB86EA7F
S11303008A95F1F700C021503109B1F70895833D72
S1130310910508F049C0FC01ED5EFF4F099480E3AC
S113032090E008958FE490E0089586E690E00895C3
S11303308DE690E008958DE790E0089587E090E0E1
S113034008958FE790E008958FE690E0089587E799
S113035090E008958CE790E0089589E390E0089593
S11303608EE590E0089589E790E0089581E790E0B4
S1130370089586E790E0089588E390E0089587E380
S113038090E008958EE390E008958DE690E008955E
S113039088E790E0089583E790E0089580E890E08E
S11303A0089580E090E0089508958FE390E0089523
S11303B08BE590E00895AF92BF92CF92DF92EF92D7
S11303C0FF920F931F93CF93DF93EC019C0136951B
S11303D027953695279536952795A5ECB0E296D6C0
S11303E08C01129502950F7001271F700127C80117
S11303F08EDF5C0128EE33E0029FC001039F900D65
S1130400129F900D1124C81BD90B9E013695279578
S113041036952795ABE7B4E179D68C011695079507
S1130420C80175DF6C0124E6209FC001219F900D57
S11304301124C81BD90B9E01ADECBCEC67D68C0112
S1130440169507951695079516950795C8015FDFCC
S11304507C01C801880F991F000F111F000F111F85
S1130460000F111F080F191FCE01801B910B4FDFC6
S1130470B0926900A0926800D0927B00C0927A008A
S1130480F092AF00E092AE009093A5008093A40098
S1130490DF91CF911F910F91FF90EF90DF90CF905C
S11304A0BF90AF9008950F931F93CF93DF93EB0109
S11304B082DF209709F44CC000E010E082B387602B
S11304C082BB9398809168009091690020DF88BB7B
S11304D081EE94E00197F1F700C0000082B38B60D5
S11304E082BB929880917A0090917B0010DF88BB48
S11304F081EE94E00197F1F700C0000082B38D60B3
S113050082BB91988091AE009091AF0000DF88BBD0
S113051081EE94E00197F1F700C0000082B38E6091
S113052082BB90988091A4009091A500F0DE88BBD6
S113053081EE94E00197F1F700C0000082ED90E0B5
S1130540E6DE88BB0F5F1F4F0C171D0709F0B6CFFF
S1130550DF91CF911F910F910895BF92CF92DF92B7
S1130560EF92FF920F931F93CF93DF936B017A0166
S11305708901CDDEB82EC2E3D0E082B3856082BBB0
S11305809398B8BA81EE94E00197F1F700C00000A7
S113059082B38D6082BB9298C601B9DE88BB81EEBE
S11305A094E00197F1F700C0000082B38D6082BB34
S11305B09198C701ACDE88BB81EE94E00197F1F716
S11305C000C0000082B38E6082BB9098C8019FDE99
S11305D088BB81EE94E00197F1F700C0000082ED42
S11305E090E095DE88BB219741F6DF91CF911F9172
S11305F00F91FF90EF90DF90CF90BF9008958F926E
S11306009F92AF92BF92CF92DF92EF92FF92BC0182
S113061080E090E012D42FE035E843E950E4E0D4E0
S113062020E030EC4FE754E474D36B017C01609319
S1130630BE007093BF008093C0009093C10020E07F
S113064030E543EC57E4CCD44B015C01A70196019F
S113065063E373E383E590E4F7D29B01AC01C50146
S1130660B40157D360938200709383008093840015
S11306709093850020E030E543EC57E44AD370D4EE
S113068020E030EE46E755E444D32FE03FEC4BE561
S11306905BE3DBD29B01AC0160E070E080E89FE3A8
S11306A038D360939C0070939D0080939E00909338
S11306B09F0023E333E948E853E4C6D26B017C018D
S11306C06093B6007093B7008093B8009093B9001C
S11306D026E636E646EE5FE383D420E030E040E0F1
S11306E052E4B3D2609376007093770080937800DD
S11306F090937900C701B601FF90EF90DF90CF90FF
S1130700BF90AF909F908F90089584B3877E84BBF1
S113071085B3886185BB8FEF87BB81B38F6081BB55
S113072081B3806F81BB82B38F7082BB08950F93B6
S11307301F93CF93DF930CE810E0C0E0D0E0F80102
S113074011821082CE019BDDE3ECF9E03197F1F7E1
S113075000C00000F801819391938F0117B883ECD6
S113076099E00197F1F700C000002196C330D1054C
S113077031F7ECE8F0E08081918190937F008093E1
S11307807E00828193819093BB008093BA00248180
S11307903581ADECBCECBAD4969587959695879542
S11307A0969587959093A1008093A000DF91CF91B7
S11307B01F910F9108958091620090916300B2D4CB
S11307C09093A3008093A2008091600090916100B7
S11307D0A9D49093AD008093AC00A9DF80917E00F2
S11307E090917F000CDFFDD27093890060938800A4
S11307F08091BA009091BB0002DFF3D2AB017093F9
S1130800A9006093A800209188003091890080910C
S1130810A2009091A3002817390738F58091AC0005
S11308209091AD004817590708F048C081E090E066
S1130830909367008093660090937100809370009A
S1130840949A959A909375008093740090939B006A
S113085080939A0020918800309189008091A200B1
S11308609091A3002817390748F12091A8003091EE
S1130870A9008091AC009091AD002817390708F4C5
S113088099C0109267001092660010927100109245
S113089070009498959810927500109274001092BC
S11308A09B0010929A0020918800309189008091D9
S11308B0A2009091A3002817390750F52091A800B1
S11308C03091A9008091AC009091AD0028173907B0
S11308D0F0F181E090E090936700809366001092BD
S11308E0710010927000949A95989093750080937B
S11308F0740010929B0010929A002091880030910D
S113090089008091A2009091A30028173907F8F07C
S11309102091A8003091A9008091AC009091AD0085
S113092028173907A0F4109267001092660081E03E
S113093090E090937100809370009498959A10922F
S113094075001092740090939B0080939A0021E0AC
S113095030E040E550E068E270E082ED90E0FDDDDB
S11309602FE78AE196E0215080409040E1F700C0F3
S113097000006AEF70E0809188009091890093DD17
S113098022E030E040E550E068E270E082ED90E083
S1130990E4DD2FE78AE196E0215080409040E1F7C2
S11309A000C000006AEF70E08091A8009091A90057
S11309B07ADD08952091A2003091A30080918800EF
S11309C0909189008217930708F0ADCFC0CFCF93E1
S11309D0DF938091620090916300A4D39093A70069
S11309E08093A60080916000909161009BD39093C6
S11309F08700809386009BDE36C099DE8091A60036
S1130A009091A70001969093A7008093A60062E3BB
S1130A1070E049DD83EC99E00197F1F700C0000034
S1130A206091A6007091A70080916200909163008C
S1130A307ED383EC99E00197F1F700C00000809128
S1130A40A6009091A700883E934020F01092A70042
S1130A501092A6008091A0009091A1004597049760
S1130A6010F048DC3DC08091A0009091A100459712
S1130A70049718F235C05BDE8091A6009091A70020
S1130A8001979093A7008093A60062E370E00BDDCA
S1130A9083EC99E00197F1F700C000006091A60093
S1130AA07091A700809162009091630040D383EC21
S1130AB099E00197F1F700C000008091A6009091A1
S1130AC0A700892B21F4D093A700C093A60080919E
S1130AD0A0009091A1004A974D9720F00BDC40C0F4
S1130AE0C7EED3E08091A0009091A1004A974D9762
S1130AF010F236C01CDE809186009091870001962A
S1130B00909387008093860062E370E0CCDC83ECF2
S1130B1099E00197F1F700C00000609186007091A0
S1130B208700809160009091610001D383EC99E08B
S1130B300197F1F700C00000809186009091870032
S1130B40883E934020F01092870010928600809196
S1130B50A0009091A100C8970E9710F0CBDB3EC087
S1130B608091A0009091A100C8970E9718F236C00A
S1130B70DEDD809186009091870001979093870035
S1130B808093860062E370E08EDC83EC99E0019749
S1130B90F1F700C000006091860070918700809199
S1130BA0600090916100C3D283EC99E00197F1F762
S1130BB000C000008091860090918700892B21F469
S1130BC0D0938700C09386008091A0009091A100EB
S1130BD087549109439720F08DDB0BC0C7EED3E017
S1130BE08091A0009091A10087549109439708F443
S1130BF0BFCFDF91CF91089588DD7CDB66DBC1E058
S1130C00D0E09C991FC0D0937300C093720072DB34
S1130C1012C02CE330E042E850E066E970E082ED77
S1130C2090E09BDCD4DE9B9906C064DB10927300D9
S1130C3010927200E6CF8091720090917300019738
S1130C4041F3DFCFB8DDDDCF5058BB27AA270ED044
S1130C5048C139D130F03ED120F031F49F3F11F436
S1130C601EF42EC10EF4E095E7FB24C1E92F4AD10E
S1130C7080F3BA17620773078407950718F071F4B5
S1130C809EF562C10EF4E0950B2EBA2FA02D0B0138
S1130C90B90190010C01CA01A0011124FF27591BBD
S1130CA099F0593F50F4503E68F11A16F040A22FC3
S1130CB0232F342F4427585FF3CF46953795279534
S1130CC0A795F0405395C9F77EF41F16BA0B620B33
S1130CD0730B840BBAF09150A1F0FF0FBB1F661F7A
S1130CE0771F881FC2F70EC0BA0F621F731F841FBD
S1130CF048F4879577956795B795F7959E3F08F0E3
S1130D00B3CF9395880F08F09927EE0F97958795A1
S1130D1008950CD0E6C0DED040F0D5D030F021F4F8
S1130D205F3F19F0C7C0511110C1CAC0EBD098F38E
S1130D309923C9F35523B1F3951B550BBB27AA2758
S1130D4062177307840738F09F5F5F4F220F331FCA
S1130D50441FAA1FA9F333D00E2E3AF0E0E830D096
S1130D6091505040E695001CCAF729D0FE2F27D099
S1130D70660F771F881FBB1F261737074807AB0767
S1130D80B0E809F0BB0B802DBF01FF2793585F4FDC
S1130D902AF09E3F510568F08DC0D7C05F3FECF349
S1130DA0983EDCF3869577956795B795F7959F5FA1
S1130DB0C9F7880F911D9695879597F90895E1E0F5
S1130DC0660F771F881FBB1F621773078407BA0754
S1130DD020F0621B730B840BBA0BEE1F88F7E095AF
S1130DE0089598D088F09F5790F0B92F9927B7515C
S1130DF0A0F0D1F0660F771F881F991F1AF0BA95DB
S1130E00C9F712C0B13081F09FD0B1E008959CC001
S1130E10672F782F8827B85F39F0B93FCCF38695D0
S1130E2077956795B395D9F73EF49095809570952D
S1130E3061957F4F8F4F9F4F0895E89409C097FBAA
S1130E403EF490958095709561957F4F8F4F9F4F9D
S1130E509923A9F0F92F96E9BB279395F6958795E1
S1130E6077956795B795F111F8CFFAF4BB0F11F4A4
S1130E7060FF1BC06F5F7F4F8F4F9F4F16C088234B
S1130E8011F096E911C0772321F09EE8872F762F81
S1130E9005C0662371F096E8862F70E060E02AF0C2
S1130EA09A95660F771F881FDAF7880F96958795AE
S1130EB097F9089597F99F6780E870E060E00895D6
S1130EC09FEF80EC089500240A941616170618065E
S1130ED00906089500240A9412161306140605063A
S1130EE00895092E0394000C11F4882352F0BB0FCB
S1130EF040F4BF2B11F460FF04C06F5F7F4F8F4F2E
S1130F009F4F089557FD9058440F551F59F05F3F68
S1130F1071F04795880F97FB991F61F09F3F79F017
S1130F2087950895121613061406551FF2CF469599
S1130F30F1DF08C0161617061806991FF1CF86951B
S1130F407105610508940895E894BB2766277727FF
S1130F50CB0197F908950EF0A6C0B2CF6894AACF3A
S1130F60D9DFC8F39923D1F3C6F3DF93CF931F934B
S1130F700F93FF92C92FDD2788232AF02197660F4C
S1130F80771F881FDAF720E030E040E85FEB9FE34B
S1130F90883920F0803E30F021968F7756DEECECD5
S1130FA0F1E003C052DEE9EFF1E08BD08B01BE012A
S1130FB0EC01FB2E6F5771097595771F880B990B00
S1130FC03EDF28E132E741E35FE316D0AF2D98011D
S1130FD0AE01FF900F911F91CF91DF9147DE81CF3A
S1130FE00BD07FCF70DF28F075DF18F0952309F060
S1130FF061CF66CF1124A9CF85DFA0F3959FD1F3EC
S1131000950F50E0551F629FF001729FBB27F00DB2
S1131010B11D639FAA27F00DB11DAA1F649F662707
S1131020B00DA11D661F829F2227B00DA11D621F56
S1131030739FB00DA11D621F839FA00D611D221F10
S1131040749F3327A00D611D231F849F600D211DF4
S1131050822F762F6A2F11249F5750408AF0E1F097
S113106088234AF0EE0FFF1FBB1F661F771F881FE0
S113107091505040A9F79E3F510570F01BCF65CFAA
S11310805F3FECF3983EDCF3869577956795B795CB
S1131090F795E7959F5FC1F7FE2B880F911D9695F5
S11310A0879597F908959F3F31F0915020F48795E3
S11310B077956795B795880F911D9695879597F9BC
S11310C00895DF93CF931F930F93FF92EF92DF92D4
S11310D07B018C01689405C0DA2EEF018DDFFE01DF
S11310E0E894A5912591359145915591AEF3EF0181
S11310F0BDDDFE019701A801DA9479F7DF90EF9046
S1131100FF900F911F91CF91DF910895A29FB0019D
S1131110B39FC001A39F01D0B29F700D811D112404
S1131120911D0895A8E1B0E042E050E005C012D05E
S1131130272F11C0DC01CB01FC01E199FECF06C0D1
S1131140FFBBEEBBE09A31960DB20D924150504078
S1131150B8F70895262FE199FECF9FBB8EBB2DBB18
S11311600FB6F894E29AE19A0FBE01960895F894A6
S1051170FFCFAB
S10711720800040069
S9030000FC
