:10000000E5C0FFC0FEC0FDC0FCC0FBC0FAC0F9C027
:10001000F8C0F7C0F6C0F5C0F4C0F3C0F2C0F1C03C
:10002000F0C0EFC0EEC094C14DC195C14EC150C1EA
:1000300052C154C156C158C15AC189C188C187C172
:1000400086C185C184C183C182C181C180C152C1C1
:100050007EC17DC17CC17BC17AC179C178C177C1C4
:1000600076C14BC174C173C172C171C170C16FC11E
:100070006EC16DC16CC144C16AC169C168C167C14B
:1000800066C165C164C163C162C13DC160C15FC178
:100090005EC15DC15CC15BC15AC159C158C136C1A5
:1000A00056C155C154C153C152C151C150C14FC1B4
:1000B0004EC12FC14CC14BC14AC149C148C147C102
:1000C00046C145C144C128C142C141C140C13FC12F
:1000D0003EC13DC13CC13BC13AC13AC138C137C143
:1000E00036C135C134C133C132C131C130C117C18C
:1000F0002EC12DC12CC12BC12AC129C128C127C1A4
:1001000026C110C124C123C122C121C120C11FC1E8
:100110001EC11DC11CC109C11AC119C118C117C115
:1001200016C115C114C113C112C102C110C10FC142
:100130000EC10DC10CC10BC10AC109C108C1FBC070
:1001400006C105C104C103C102C101C100C1FFC094
:10015000FEC0F4C0FCC0FBC0FAC0F9C0F8C0F7C0D4
:10016000F6C0F5C0F4C0F3C0F2C0F1C0F0C0EFC0FB
:10017000EEC0EDC0ECC0EBC0EAC0E9C0E8C0E7C02B
:10018000E6C0E5C0E4C0E3C0E2C0E1C0E0C0DFC05B
:10019000DEC0DDC0DCC0DBC0DAC0D9C0D8C0D7C08B
:1001A000D6C0D5C0D4C0D3C0D2C0D1C0D0C0CFC0BB
:1001B000CEC0CDC0CCC0C5C0CAC0C9C0C8C0C7C0F1
:1001C000C6C0C5C0C4C0C3C0C2C0BEC011241FBE0B
:1001D000CFE5D4E0DEBFCDBF10E0A0E6B0E0E6EBB7
:1001E000FCE002C005900D92A436B107D9F720E0DB
:1001F000A4E6B0E001C01D92AE39B207E1F767D3C3
:1002000058C5FECE97B18770982B97B93E9A86B1A4
:10021000836086B9379A369A349BFECF349A84B17C
:1002200095B108950F931F93CF938C01EBDF9093BB
:100230009D0080939C00C0E1C801E4DF20919C00F8
:1002400030919D00820F931F90939D0080939C009E
:10025000C15091F7929582958F7089279F70892759
:1002600090939D0080939C00CF911F910F910895D2
:10027000969A2FE58AEE90E0215080409040E1F779
:1002800000C0000096982FE58AEE90E02150804053
:100290009040E1F700C00000089524EF31E082B300
:1002A000805882BB86EA8A95F1F700C02150310957
:1002B000B1F70895833D910508F049C0FC01ED5E5A
:1002C000FF4F099480E390E008958FE490E0089553
:1002D00086E690E008958DE690E008958DE790E041
:1002E000089587E090E008958FE790E008958FE605
:1002F00090E0089587E790E008958CE790E00895F6
:1003000089E390E008958EE590E0089589E790E014
:10031000089581E790E0089586E790E0089588E3E6
:1003200090E0089587E390E008958EE390E00895CB
:100330008DE690E0089588E790E0089583E790E0E7
:10034000089580E890E0089580E090E00895089591
:100350008FE390E008958BE590E00895AF92BF920F
:10036000CF92DF92EF92FF920F931F93CF93DF9381
:10037000EC019C013695279536952795369527955E
:10038000A5ECB0E265D48C01129502950F7001279F
:100390001F700127C8018EDF5C0128EE33E0029F49
:1003A000C001039F900D129F900D1124C81BD90B03
:1003B0009E013695279536952795ABE7B4E148D44D
:1003C0008C0116950795C80175DF6C0124E6209F06
:1003D000C001219F900D1124C81BD90B9E01ADECCB
:1003E000BCEC36D48C011695079516950795169595
:1003F0000795C8015FDF7C01C801880F991F000FB6
:10040000111F000F111F000F111F080F191FCE0120
:10041000801B910B4FDFB0926900A0926800D092D0
:100420007300C0927200F0929700E0929600909351
:100430008D0080938C00DF91CF911F910F91FF90E1
:10044000EF90DF90CF90BF90AF9008950F931F93E0
:10045000CF93DF93EB0182DF209709F44CC000E0DB
:1004600010E082B3876082BB93988091680090917E
:10047000690020DF88BB81EE94E00197F1F700C0AE
:10048000000082B38B6082BB929880917200909141
:10049000730010DF88BB81EE94E00197F1F700C094
:1004A000000082B38D6082BB9198809196009091FC
:1004B000970000DF88BB81EE94E00197F1F700C060
:1004C000000082B38E6082BB909880918C009091E6
:1004D0008D00F0DE88BB81EE94E00197F1F700C05B
:1004E000000082ED90E0E6DE88BB0F5F1F4F0C1727
:1004F0001D0709F0B6CFDF91CF911F910F9108959D
:10050000BF92CF92DF92EF92FF920F931F93CF9300
:10051000DF936B017A018901CDDEB82EC2E3D0E012
:1005200082B3856082BB9398B8BA81EE94E001975C
:10053000F1F700C0000082B38D6082BB9298C601C3
:10054000B9DE88BB81EE94E00197F1F700C00000AE
:1005500082B38D6082BB9198C701ACDE88BB81EE0F
:1005600094E00197F1F700C0000082B38E6082BB77
:100570009098C8019FDE88BB81EE94E00197F1F767
:1005800000C0000082ED90E095DE88BB219741F627
:10059000DF91CF911F910F91FF90EF90DF90CF905F
:1005A000BF90089584B3877E84BB85B3886185BB83
:1005B0008FEF87BB81B38F6081BB81B3806F81BBBD
:1005C00082B38F7082BB08950F931F93CF93DF93F5
:1005D00000E810E0C0E0D0E0F80111821082CE0106
:1005E00021DEE3ECF9E03197F1F700C00000F801FB
:1005F000819391938F0117B883EC99E00197F1F7FC
:1006000000C000002196C330D10531F7E0E8F0E0EA
:10061000408151815093770040937600C281D3810D
:10062000D0939B00C0939A0024813581ADECBCEC43
:100630000FD39695879596958795969587959093E0
:10064000890080938800BA0180E090E010D22FE00A
:1006500035E843E950E471D225E83BEE41ED5EE335
:100660006CD2D9D170937D0060937C00BE0180E094
:1006700090E0FDD12FE035E843E950E45ED225E873
:100680003BEE41ED5EE359D2C6D170939100609389
:100690009000CB01DF91CF911F910F9108958417A6
:1006A000950708F045C06217730708F045C081E060
:1006B00090E0909367008093660090936D00809324
:1006C0006C00949A959A9093710080937000909327
:1006D00087008093860027C0109267001092660002
:1006E00010926D0010926C00949895981092710081
:1006F00010927000109287001092860032C0109203
:1007000067001092660081E090E090936D00809306
:100710006C009498959A10927100109270009093CA
:1007200087008093860080918600909187000895CD
:100730006217730788F615C081E090E09093670018
:100740008093660010926D0010926C00949A9598B8
:100750009093710080937000109287001092860031
:10076000E2CF6217730758F2DECF0F931F93CF9338
:10077000DF938C01EB0124C027DF0F5F1F4F62E383
:1007800070E0C80163DE89EF90E00197F1F700C0E7
:100790000000B80180916200909163006AD2083E27
:1007A00093E0190720F010928B0010928A0080913C
:1007B0008800909189004597049710F06EDD29C05C
:1007C000809188009091890045970497A8F221C0F4
:1007D000FBDE0150110962E370E0C80137DE89EFEA
:1007E00090E00197F1F700C00000B801809162002D
:1007F000909163003ED20115110511F407EE13E04C
:1008000080918800909189004A974D9710F045DDBE
:1008100029C080918800909189004A974D97C0F235
:1008200021C0D2DE219662E370E0CE010FDE89EFB7
:1008300090E00197F1F700C00000BE0180916000D8
:100840009091610016D2C83E93E0D90710F0C0E045
:10085000D0E08091880090918900C8970E9710F0A1
:100860001CDD28C08091880090918900C8970E9760
:10087000C0F220C0A9DE219762E370E0CE01E6DD80
:1008800089EF90E00197F1F700C00000BE01809170
:10089000600090916100EDD1209711F4C7EED3E094
:1008A000809188009091890087549109439710F0B6
:1008B000F4DC08C0809188009091890087549109E8
:1008C0004397C0F2DF91CF911F910F9108956ADE97
:1008D000E4DCCEDC9C993CC081E090E090936F001A
:1008E00080936E00DADC2DC02CE330E042E850E06B
:1008F00066E970E082ED90E003DE80916200909105
:100900006300B2D190938F0080938E00809160003D
:1009100090916100A9D190937B0080937A0054DE7E
:1009200060917A0070917B0080918E0090918F0091
:100930001CDF9B9906C0B1DC10926F0010926E0014
:10094000C9CF80916E0090916F00019769F2C2CF7C
:10095000809162009091630087D1BC0180E090E0BB
:1009600086D02FE035E843E950E4E7D025E83BEEB8
:1009700041ED5EE3E2D04FD070938B0060938A002C
:1009800080916000909161006FD1BC0180E090E0A7
:100990006ED02FE035E843E950E4CFD025E83BEEB8
:1009A00041ED5EE3CAD037D0709395006093940018
:1009B0000BDE209194003091950040918A00509177
:1009C0008B00609190007091910080917C009091DB
:1009D0007D0065DE21E030E040E550E068E270E057
:1009E00082ED90E08DDD6AEF70E080917C00909167
:1009F0007D002CDD22E030E040E550E068E270E070
:100A000082ED90E07DDD6AEF70E080919000909142
:100A100091001CDD5FCF70D088F09F5790F0B92F08
:100A20009927B751A0F0D1F0660F771F881F991F43
:100A30001AF0BA95C9F712C0B13081F077D0B1E0A1
:100A4000089574C0672F782F8827B85F39F0B93FB1
:100A5000CCF3869577956795B395D9F73EF4909545
:100A60008095709561957F4F8F4F9F4F0895E894C3
:100A700009C097FB3EF490958095709561957F4FE6
:100A80008F4F9F4F9923A9F0F92F96E9BB27939594
:100A9000F695879577956795B795F111F8CFFAF4A4
:100AA000BB0F11F460FF1BC06F5F7F4F8F4F9F4FD5
:100AB00016C0882311F096E911C0772321F09EE833
:100AC000872F762F05C0662371F096E8862F70E099
:100AD00060E02AF09A95660F771F881FDAF7880F73
:100AE0009695879597F9089557FD9058440F551F8F
:100AF00059F05F3F71F04795880F97FB991F61F0A0
:100B00009F3F79F087950895121613061406551F16
:100B1000F2CF4695F1DF08C0161617061806991F82
:100B2000F1CF86957105610508940895E894BB2777
:100B300066277727CB0197F908950BD078C069D045
:100B400028F06ED018F0952309F05AC05FC0112428
:100B5000EECFCADFA0F3959FD1F3950F50E0551F5C
:100B6000629FF001729FBB27F00DB11D639FAA2702
:100B7000F00DB11DAA1F649F6627B00DA11D661F51
:100B8000829F2227B00DA11D621F739FB00DA11D72
:100B9000621F839FA00D611D221F749F3327A00D2C
:100BA000611D231F849F600D211D822F762F6A2FC8
:100BB00011249F5750408AF0E1F088234AF0EE0F4D
:100BC000FF1FBB1F661F771F881F91505040A9F75A
:100BD0009E3F510570F014C0AACF5F3FECF3983EE2
:100BE000DCF3869577956795B795F795E7959F5FC1
:100BF000C1F7FE2B880F911D9695879597F908955B
:100C000097F99F6780E870E060E008959FEF80ECBF
:100C1000089500240A941616170618060906089562
:100C200000240A9412161306140605060895092EC8
:100C30000394000C11F4882352F0BB0F40F4BF2B37
:100C400011F460FF04C06F5F7F4F8F4F9F4F089577
:100C5000A29FB001B39FC001A39F01D0B29F700DAE
:100C6000811D1124911D0895A8E1B0E042E050E0FB
:100C700005C012D0272F11C0DC01CB01FC01E19986
:100C8000FECF06C0FFBBEEBBE09A31960DB20D92CF
:100C900041505040B8F70895262FE199FECF9FBBF1
:100CA0008EBB2DBB0FB6F894E29AE19A0FBE019667
:060CB0000895F894FFCF47
:040CB600080004002E
:00000001FF
